{
  "_format": "hh-sol-artifact-1",
  "contractName": "MyEpicNFT",
  "sourceName": "contracts/MyEpicNFT.sol",
  "abi": [
    {
      "inputs": [],
      "stateMutability": "nonpayable",
      "type": "constructor"
    },
    {
      "anonymous": false,
      "inputs": [
        {
          "indexed": true,
          "internalType": "address",
          "name": "owner",
          "type": "address"
        },
        {
          "indexed": true,
          "internalType": "address",
          "name": "approved",
          "type": "address"
        },
        {
          "indexed": true,
          "internalType": "uint256",
          "name": "tokenId",
          "type": "uint256"
        }
      ],
      "name": "Approval",
      "type": "event"
    },
    {
      "anonymous": false,
      "inputs": [
        {
          "indexed": true,
          "internalType": "address",
          "name": "owner",
          "type": "address"
        },
        {
          "indexed": true,
          "internalType": "address",
          "name": "operator",
          "type": "address"
        },
        {
          "indexed": false,
          "internalType": "bool",
          "name": "approved",
          "type": "bool"
        }
      ],
      "name": "ApprovalForAll",
      "type": "event"
    },
    {
      "anonymous": false,
      "inputs": [
        {
          "indexed": false,
          "internalType": "address",
          "name": "sender",
          "type": "address"
        },
        {
          "indexed": false,
          "internalType": "uint256",
          "name": "tokenId",
          "type": "uint256"
        }
      ],
      "name": "NewEpicNFTMinted",
      "type": "event"
    },
    {
      "anonymous": false,
      "inputs": [
        {
          "indexed": true,
          "internalType": "address",
          "name": "from",
          "type": "address"
        },
        {
          "indexed": true,
          "internalType": "address",
          "name": "to",
          "type": "address"
        },
        {
          "indexed": true,
          "internalType": "uint256",
          "name": "tokenId",
          "type": "uint256"
        }
      ],
      "name": "Transfer",
      "type": "event"
    },
    {
      "inputs": [
        {
          "internalType": "address",
          "name": "to",
          "type": "address"
        },
        {
          "internalType": "uint256",
          "name": "tokenId",
          "type": "uint256"
        }
      ],
      "name": "approve",
      "outputs": [],
      "stateMutability": "nonpayable",
      "type": "function"
    },
    {
      "inputs": [
        {
          "internalType": "address",
          "name": "owner",
          "type": "address"
        }
      ],
      "name": "balanceOf",
      "outputs": [
        {
          "internalType": "uint256",
          "name": "",
          "type": "uint256"
        }
      ],
      "stateMutability": "view",
      "type": "function"
    },
    {
      "inputs": [
        {
          "internalType": "uint256",
          "name": "tokenId",
          "type": "uint256"
        }
      ],
      "name": "getApproved",
      "outputs": [
        {
          "internalType": "address",
          "name": "",
          "type": "address"
        }
      ],
      "stateMutability": "view",
      "type": "function"
    },
    {
      "inputs": [
        {
          "internalType": "address",
          "name": "owner",
          "type": "address"
        },
        {
          "internalType": "address",
          "name": "operator",
          "type": "address"
        }
      ],
      "name": "isApprovedForAll",
      "outputs": [
        {
          "internalType": "bool",
          "name": "",
          "type": "bool"
        }
      ],
      "stateMutability": "view",
      "type": "function"
    },
    {
      "inputs": [],
      "name": "makeAnEpicNFT",
      "outputs": [],
      "stateMutability": "nonpayable",
      "type": "function"
    },
    {
      "inputs": [],
      "name": "name",
      "outputs": [
        {
          "internalType": "string",
          "name": "",
          "type": "string"
        }
      ],
      "stateMutability": "view",
      "type": "function"
    },
    {
      "inputs": [
        {
          "internalType": "uint256",
          "name": "tokenId",
          "type": "uint256"
        }
      ],
      "name": "ownerOf",
      "outputs": [
        {
          "internalType": "address",
          "name": "",
          "type": "address"
        }
      ],
      "stateMutability": "view",
      "type": "function"
    },
    {
      "inputs": [
        {
          "internalType": "string",
          "name": "seed",
          "type": "string"
        }
      ],
      "name": "pickRandomWords",
      "outputs": [
        {
          "internalType": "uint256",
          "name": "",
          "type": "uint256"
        }
      ],
      "stateMutability": "view",
      "type": "function"
    },
    {
      "inputs": [
        {
          "internalType": "address",
          "name": "from",
          "type": "address"
        },
        {
          "internalType": "address",
          "name": "to",
          "type": "address"
        },
        {
          "internalType": "uint256",
          "name": "tokenId",
          "type": "uint256"
        }
      ],
      "name": "safeTransferFrom",
      "outputs": [],
      "stateMutability": "nonpayable",
      "type": "function"
    },
    {
      "inputs": [
        {
          "internalType": "address",
          "name": "from",
          "type": "address"
        },
        {
          "internalType": "address",
          "name": "to",
          "type": "address"
        },
        {
          "internalType": "uint256",
          "name": "tokenId",
          "type": "uint256"
        },
        {
          "internalType": "bytes",
          "name": "_data",
          "type": "bytes"
        }
      ],
      "name": "safeTransferFrom",
      "outputs": [],
      "stateMutability": "nonpayable",
      "type": "function"
    },
    {
      "inputs": [
        {
          "internalType": "address",
          "name": "operator",
          "type": "address"
        },
        {
          "internalType": "bool",
          "name": "approved",
          "type": "bool"
        }
      ],
      "name": "setApprovalForAll",
      "outputs": [],
      "stateMutability": "nonpayable",
      "type": "function"
    },
    {
      "inputs": [
        {
          "internalType": "bytes4",
          "name": "interfaceId",
          "type": "bytes4"
        }
      ],
      "name": "supportsInterface",
      "outputs": [
        {
          "internalType": "bool",
          "name": "",
          "type": "bool"
        }
      ],
      "stateMutability": "view",
      "type": "function"
    },
    {
      "inputs": [],
      "name": "symbol",
      "outputs": [
        {
          "internalType": "string",
          "name": "",
          "type": "string"
        }
      ],
      "stateMutability": "view",
      "type": "function"
    },
    {
      "inputs": [
        {
          "internalType": "uint256",
          "name": "tokenId",
          "type": "uint256"
        }
      ],
      "name": "tokenURI",
      "outputs": [
        {
          "internalType": "string",
          "name": "",
          "type": "string"
        }
      ],
      "stateMutability": "view",
      "type": "function"
    },
    {
      "inputs": [
        {
          "internalType": "address",
          "name": "from",
          "type": "address"
        },
        {
          "internalType": "address",
          "name": "to",
          "type": "address"
        },
        {
          "internalType": "uint256",
          "name": "tokenId",
          "type": "uint256"
        }
      ],
      "name": "transferFrom",
      "outputs": [],
      "stateMutability": "nonpayable",
      "type": "function"
    }
  ],
  "bytecode": "0x608060405260405180610100016040528060d38152602001620052b060d39139600890805190602001906200003692919062001552565b506040518060800160405280605681526020016200538360569139600990805190602001906200006892919062001552565b506040518060c001604052806040518060400160405280600381526020017f726564000000000000000000000000000000000000000000000000000000000081525081526020016040518060400160405280600781526020017f233038433241380000000000000000000000000000000000000000000000000081525081526020016040518060400160405280600581526020017f626c61636b00000000000000000000000000000000000000000000000000000081525081526020016040518060400160405280600681526020017f79656c6c6f77000000000000000000000000000000000000000000000000000081525081526020016040518060400160405280600481526020017f626c75650000000000000000000000000000000000000000000000000000000081525081526020016040518060400160405280600581526020017f677265656e000000000000000000000000000000000000000000000000000000815250815250600a906006620001e6929190620015e3565b506040518061032001604052806040518060400160405280600481526020017f54696d650000000000000000000000000000000000000000000000000000000081525081526020016040518060400160405280600681526020017f506572736f6e000000000000000000000000000000000000000000000000000081525081526020016040518060400160405280600481526020017f596561720000000000000000000000000000000000000000000000000000000081525081526020016040518060400160405280600381526020017f576179000000000000000000000000000000000000000000000000000000000081525081526020016040518060400160405280600381526020017f446179000000000000000000000000000000000000000000000000000000000081525081526020016040518060400160405280600581526020017f5468696e6700000000000000000000000000000000000000000000000000000081525081526020016040518060400160405280600381526020017f4d616e000000000000000000000000000000000000000000000000000000000081525081526020016040518060400160405280600581526020017f576f726c6400000000000000000000000000000000000000000000000000000081525081526020016040518060400160405280600481526020017f4c6966650000000000000000000000000000000000000000000000000000000081525081526020016040518060400160405280600481526020017f48616e640000000000000000000000000000000000000000000000000000000081525081526020016040518060400160405280600481526020017f506172740000000000000000000000000000000000000000000000000000000081525081526020016040518060400160405280600581526020017f4368696c6400000000000000000000000000000000000000000000000000000081525081526020016040518060400160405280600381526020017f457965000000000000000000000000000000000000000000000000000000000081525081526020016040518060400160405280600581526020017f576f6d616e00000000000000000000000000000000000000000000000000000081525081526020016040518060400160405280600581526020017f506c61636500000000000000000000000000000000000000000000000000000081525081526020016040518060400160405280600481526020017f576f726b0000000000000000000000000000000000000000000000000000000081525081526020016040518060400160405280600481526020017f5765656b0000000000000000000000000000000000000000000000000000000081525081526020016040518060400160405280600481526020017f436173650000000000000000000000000000000000000000000000000000000081525081526020016040518060400160405280600581526020017f506f696e7400000000000000000000000000000000000000000000000000000081525081526020016040518060400160405280600a81526020017f476f7665726e6d656e740000000000000000000000000000000000000000000081525081526020016040518060400160405280600781526020017f436f6d70616e790000000000000000000000000000000000000000000000000081525081526020016040518060400160405280600681526020017f4e756d626572000000000000000000000000000000000000000000000000000081525081526020016040518060400160405280600581526020017f47726f757000000000000000000000000000000000000000000000000000000081525081526020016040518060400160405280600781526020017f50726f626c656d0000000000000000000000000000000000000000000000000081525081526020016040518060400160405280600481526020017f4661637400000000000000000000000000000000000000000000000000000000815250815250600b906019620007c69291906200164a565b506040518061032001604052806040518060400160405280600281526020017f426500000000000000000000000000000000000000000000000000000000000081525081526020016040518060400160405280600481526020017f486176650000000000000000000000000000000000000000000000000000000081525081526020016040518060400160405280600281526020017f446f00000000000000000000000000000000000000000000000000000000000081525081526020016040518060400160405280600381526020017f536179000000000000000000000000000000000000000000000000000000000081525081526020016040518060400160405280600381526020017f476574000000000000000000000000000000000000000000000000000000000081525081526020016040518060400160405280600481526020017f4d616b650000000000000000000000000000000000000000000000000000000081525081526020016040518060400160405280600281526020017f476f00000000000000000000000000000000000000000000000000000000000081525081526020016040518060400160405280600481526020017f4b6e6f770000000000000000000000000000000000000000000000000000000081525081526020016040518060400160405280600481526020017f54616b650000000000000000000000000000000000000000000000000000000081525081526020016040518060400160405280600381526020017f536565000000000000000000000000000000000000000000000000000000000081525081526020016040518060400160405280600481526020017f436f6d650000000000000000000000000000000000000000000000000000000081525081526020016040518060400160405280600581526020017f5468696e6b00000000000000000000000000000000000000000000000000000081525081526020016040518060400160405280600481526020017f4c6f6f6b0000000000000000000000000000000000000000000000000000000081525081526020016040518060400160405280600481526020017f57616e740000000000000000000000000000000000000000000000000000000081525081526020016040518060400160405280600481526020017f476976650000000000000000000000000000000000000000000000000000000081525081526020016040518060400160405280600381526020017f557365000000000000000000000000000000000000000000000000000000000081525081526020016040518060400160405280600481526020017f46696e640000000000000000000000000000000000000000000000000000000081525081526020016040518060400160405280600481526020017f54656c6c0000000000000000000000000000000000000000000000000000000081525081526020016040518060400160405280600381526020017f41736b000000000000000000000000000000000000000000000000000000000081525081526020016040518060400160405280600481526020017f576f726b0000000000000000000000000000000000000000000000000000000081525081526020016040518060400160405280600481526020017f5365656d0000000000000000000000000000000000000000000000000000000081525081526020016040518060400160405280600481526020017f4665656c0000000000000000000000000000000000000000000000000000000081525081526020016040518060400160405280600381526020017f547279000000000000000000000000000000000000000000000000000000000081525081526020016040518060400160405280600581526020017f4c6561766500000000000000000000000000000000000000000000000000000081525081526020016040518060400160405280600481526020017f43616c6c00000000000000000000000000000000000000000000000000000000815250815250600c90601962000da69291906200164a565b506040518061032001604052806040518060400160405280600481526020017f476f6f640000000000000000000000000000000000000000000000000000000081525081526020016040518060400160405280600381526020017f4e6577000000000000000000000000000000000000000000000000000000000081525081526020016040518060400160405280600581526020017f466972737400000000000000000000000000000000000000000000000000000081525081526020016040518060400160405280600481526020017f4c6173740000000000000000000000000000000000000000000000000000000081525081526020016040518060400160405280600481526020017f4c6f6e670000000000000000000000000000000000000000000000000000000081525081526020016040518060400160405280600581526020017f477265617400000000000000000000000000000000000000000000000000000081525081526020016040518060400160405280600681526020017f4c6974746c65000000000000000000000000000000000000000000000000000081525081526020016040518060400160405280600381526020017f4f776e000000000000000000000000000000000000000000000000000000000081525081526020016040518060400160405280600581526020017f4f7468657200000000000000000000000000000000000000000000000000000081525081526020016040518060400160405280600381526020017f4f6c64000000000000000000000000000000000000000000000000000000000081525081526020016040518060400160405280600581526020017f526967687400000000000000000000000000000000000000000000000000000081525081526020016040518060400160405280600381526020017f426967000000000000000000000000000000000000000000000000000000000081525081526020016040518060400160405280600481526020017f486967680000000000000000000000000000000000000000000000000000000081525081526020016040518060400160405280600981526020017f446966666572656e74000000000000000000000000000000000000000000000081525081526020016040518060400160405280600581526020017f536d616c6c00000000000000000000000000000000000000000000000000000081525081526020016040518060400160405280600581526020017f4c6172676500000000000000000000000000000000000000000000000000000081525081526020016040518060400160405280600481526020017f4e6578740000000000000000000000000000000000000000000000000000000081525081526020016040518060400160405280600581526020017f4561726c7900000000000000000000000000000000000000000000000000000081525081526020016040518060400160405280600581526020017f596f756e6700000000000000000000000000000000000000000000000000000081525081526020016040518060400160405280600981526020017f496d706f7274616e74000000000000000000000000000000000000000000000081525081526020016040518060400160405280600381526020017f466577000000000000000000000000000000000000000000000000000000000081525081526020016040518060400160405280600681526020017f5075626c6963000000000000000000000000000000000000000000000000000081525081526020016040518060400160405280600381526020017f426164000000000000000000000000000000000000000000000000000000000081525081526020016040518060400160405280600481526020017f53616d650000000000000000000000000000000000000000000000000000000081525081526020016040518060400160405280600481526020017f41626c6500000000000000000000000000000000000000000000000000000000815250815250600d906019620013869291906200164a565b503480156200139457600080fd5b506040518060400160405280600981526020017f5371756172654e465400000000000000000000000000000000000000000000008152506040518060400160405280600681526020017f535155415245000000000000000000000000000000000000000000000000000081525081600090805190602001906200141992919062001552565b5080600190805190602001906200143292919062001552565b505050620014806040518060400160405280601e81526020017f54686973206973206d79204e465420636f6e74726163742e20576f61682100008152506200148660201b6200131d1760201c565b6200186b565b62001526816040516024016200149d91906200177f565b6040516020818303038152906040527f41304fac000000000000000000000000000000000000000000000000000000007bffffffffffffffffffffffffffffffffffffffffffffffffffffffff19166020820180517bffffffffffffffffffffffffffffffffffffffffffffffffffffffff83818316178352505050506200152960201b60201c565b50565b60008151905060006a636f6e736f6c652e6c6f679050602083016000808483855afa5050505050565b8280546200156090620017f5565b90600052602060002090601f016020900481019282620015845760008555620015d0565b82601f106200159f57805160ff1916838001178555620015d0565b82800160010185558215620015d0579182015b82811115620015cf578251825591602001919060010190620015b2565b5b509050620015df9190620016b1565b5090565b82805482825590600052602060002090810192821562001637579160200282015b82811115620016365782518290805190602001906200162592919062001552565b509160200191906001019062001604565b5b509050620016469190620016d0565b5090565b8280548282559060005260206000209081019282156200169e579160200282015b828111156200169d5782518290805190602001906200168c92919062001552565b50916020019190600101906200166b565b5b509050620016ad9190620016d0565b5090565b5b80821115620016cc576000816000905550600101620016b2565b5090565b5b80821115620016f45760008181620016ea9190620016f8565b50600101620016d1565b5090565b5080546200170690620017f5565b6000825580601f106200171a57506200173b565b601f0160209004906000526020600020908101906200173a9190620016b1565b5b50565b60006200174b82620017a3565b620017578185620017ae565b935062001769818560208601620017bf565b62001774816200185a565b840191505092915050565b600060208201905081810360008301526200179b81846200173e565b905092915050565b600081519050919050565b600082825260208201905092915050565b60005b83811015620017df578082015181840152602081019050620017c2565b83811115620017ef576000848401525b50505050565b600060028204905060018216806200180e57607f821691505b602082108114156200182557620018246200182b565b5b50919050565b7f4e487b7100000000000000000000000000000000000000000000000000000000600052602260045260246000fd5b6000601f19601f8301169050919050565b613a35806200187b6000396000f3fe608060405234801561001057600080fd5b50600436106100f55760003560e01c80636352211e11610097578063b88d4fde11610066578063b88d4fde14610296578063c87b56dd146102b2578063de9d132f146102e2578063e985e9c5146102ec576100f5565b80636352211e146101fc57806370a082311461022c57806395d89b411461025c578063a22cb4651461027a576100f5565b8063095ea7b3116100d3578063095ea7b314610178578063210b3b611461019457806323b872dd146101c457806342842e0e146101e0576100f5565b806301ffc9a7146100fa57806306fdde031461012a578063081812fc14610148575b600080fd5b610114600480360381019061010f9190612618565b61031c565b6040516101219190612c97565b60405180910390f35b6101326103fe565b60405161013f9190612cb2565b60405180910390f35b610162600480360381019061015d91906126ab565b610490565b60405161016f9190612c07565b60405180910390f35b610192600480360381019061018d91906125dc565b610515565b005b6101ae60048036038101906101a9919061266a565b61062d565b6040516101bb9190612f12565b60405180910390f35b6101de60048036038101906101d991906124d6565b61067b565b005b6101fa60048036038101906101f591906124d6565b6106db565b005b610216600480360381019061021191906126ab565b6106fb565b6040516102239190612c07565b60405180910390f35b61024660048036038101906102419190612471565b6107ad565b6040516102539190612f12565b60405180910390f35b610264610865565b6040516102719190612cb2565b60405180910390f35b610294600480360381019061028f91906125a0565b6108f7565b005b6102b060048036038101906102ab9190612525565b610a78565b005b6102cc60048036038101906102c791906126ab565b610ada565b6040516102d99190612cb2565b60405180910390f35b6102ea610c2c565b005b6103066004803603810190610301919061249a565b611289565b6040516103139190612c97565b60405180910390f35b60007f80ac58cd000000000000000000000000000000000000000000000000000000007bffffffffffffffffffffffffffffffffffffffffffffffffffffffff1916827bffffffffffffffffffffffffffffffffffffffffffffffffffffffff191614806103e757507f5b5e139f000000000000000000000000000000000000000000000000000000007bffffffffffffffffffffffffffffffffffffffffffffffffffffffff1916827bffffffffffffffffffffffffffffffffffffffffffffffffffffffff1916145b806103f757506103f6826113b6565b5b9050919050565b60606000805461040d906131d7565b80601f0160208091040260200160405190810160405280929190818152602001828054610439906131d7565b80156104865780601f1061045b57610100808354040283529160200191610486565b820191906000526020600020905b81548152906001019060200180831161046957829003601f168201915b5050505050905090565b600061049b82611420565b6104da576040517f08c379a00000000000000000000000000000000000000000000000000000000081526004016104d190612e72565b60405180910390fd5b6004600083815260200190815260200160002060009054906101000a900473ffffffffffffffffffffffffffffffffffffffff169050919050565b6000610520826106fb565b90508073ffffffffffffffffffffffffffffffffffffffff168373ffffffffffffffffffffffffffffffffffffffff161415610591576040517f08c379a000000000000000000000000000000000000000000000000000000000815260040161058890612ed2565b60405180910390fd5b8073ffffffffffffffffffffffffffffffffffffffff166105b061148c565b73ffffffffffffffffffffffffffffffffffffffff1614806105df57506105de816105d961148c565b611289565b5b61061e576040517f08c379a000000000000000000000000000000000000000000000000000000000815260040161061590612db2565b60405180910390fd5b6106288383611494565b505050565b600061067482610645610640600761154d565b61155b565b61064e4261155b565b60405160200161066093929190612b26565b604051602081830303815290604052611708565b9050919050565b61068c61068661148c565b8261173b565b6106cb576040517f08c379a00000000000000000000000000000000000000000000000000000000081526004016106c290612ef2565b60405180910390fd5b6106d6838383611819565b505050565b6106f683838360405180602001604052806000815250610a78565b505050565b6000806002600084815260200190815260200160002060009054906101000a900473ffffffffffffffffffffffffffffffffffffffff169050600073ffffffffffffffffffffffffffffffffffffffff168173ffffffffffffffffffffffffffffffffffffffff1614156107a4576040517f08c379a000000000000000000000000000000000000000000000000000000000815260040161079b90612df2565b60405180910390fd5b80915050919050565b60008073ffffffffffffffffffffffffffffffffffffffff168273ffffffffffffffffffffffffffffffffffffffff16141561081e576040517f08c379a000000000000000000000000000000000000000000000000000000000815260040161081590612dd2565b60405180910390fd5b600360008373ffffffffffffffffffffffffffffffffffffffff1673ffffffffffffffffffffffffffffffffffffffff168152602001908152602001600020549050919050565b606060018054610874906131d7565b80601f01602080910402602001604051908101604052809291908181526020018280546108a0906131d7565b80156108ed5780601f106108c2576101008083540402835291602001916108ed565b820191906000526020600020905b8154815290600101906020018083116108d057829003601f168201915b5050505050905090565b6108ff61148c565b73ffffffffffffffffffffffffffffffffffffffff168273ffffffffffffffffffffffffffffffffffffffff16141561096d576040517f08c379a000000000000000000000000000000000000000000000000000000000815260040161096490612d72565b60405180910390fd5b806005600061097a61148c565b73ffffffffffffffffffffffffffffffffffffffff1673ffffffffffffffffffffffffffffffffffffffff16815260200190815260200160002060008473ffffffffffffffffffffffffffffffffffffffff1673ffffffffffffffffffffffffffffffffffffffff16815260200190815260200160002060006101000a81548160ff0219169083151502179055508173ffffffffffffffffffffffffffffffffffffffff16610a2761148c565b73ffffffffffffffffffffffffffffffffffffffff167f17307eab39ab6107e8899845ad3d59bd9653f200f220920489ca2b5937696c3183604051610a6c9190612c97565b60405180910390a35050565b610a89610a8361148c565b8361173b565b610ac8576040517f08c379a0000000000000000000000000000000000000000000000000000000008152600401610abf90612ef2565b60405180910390fd5b610ad484848484611a75565b50505050565b6060610ae582611420565b610b24576040517f08c379a0000000000000000000000000000000000000000000000000000000008152600401610b1b90612e52565b60405180910390fd5b6000600660008481526020019081526020016000208054610b44906131d7565b80601f0160208091040260200160405190810160405280929190818152602001828054610b70906131d7565b8015610bbd5780601f10610b9257610100808354040283529160200191610bbd565b820191906000526020600020905b815481529060010190602001808311610ba057829003601f168201915b505050505090506000610bce611ad1565b9050600081511415610be4578192505050610c27565b600082511115610c19578082604051602001610c01929190612b02565b60405160208183030381529060405292505050610c27565b610c2284611ae8565b925050505b919050565b6000610c38600761154d565b90506000600b8080549050610c816040518060400160405280600a81526020017f46495253545f574f52440000000000000000000000000000000000000000000081525061062d565b610c8b9190613283565b81548110610cc2577f4e487b7100000000000000000000000000000000000000000000000000000000600052603260045260246000fd5b906000526020600020018054610cd7906131d7565b80601f0160208091040260200160405190810160405280929190818152602001828054610d03906131d7565b8015610d505780601f10610d2557610100808354040283529160200191610d50565b820191906000526020600020905b815481529060010190602001808311610d3357829003601f168201915b505050505090506000600c8080549050610d9e6040518060400160405280600b81526020017f5345434f4e445f574f524400000000000000000000000000000000000000000081525061062d565b610da89190613283565b81548110610ddf577f4e487b7100000000000000000000000000000000000000000000000000000000600052603260045260246000fd5b906000526020600020018054610df4906131d7565b80601f0160208091040260200160405190810160405280929190818152602001828054610e20906131d7565b8015610e6d5780601f10610e4257610100808354040283529160200191610e6d565b820191906000526020600020905b815481529060010190602001808311610e5057829003601f168201915b505050505090506000600d8080549050610ebb6040518060400160405280600a81526020017f54484952445f574f52440000000000000000000000000000000000000000000081525061062d565b610ec59190613283565b81548110610efc577f4e487b7100000000000000000000000000000000000000000000000000000000600052603260045260246000fd5b906000526020600020018054610f11906131d7565b80601f0160208091040260200160405190810160405280929190818152602001828054610f3d906131d7565b8015610f8a5780601f10610f5f57610100808354040283529160200191610f8a565b820191906000526020600020905b815481529060010190602001808311610f6d57829003601f168201915b505050505090506000838383604051602001610fa893929190612b26565b60405160208183030381529060405290506000600a80805490506110006040518060400160405280600581526020017f434f4c4f5200000000000000000000000000000000000000000000000000000081525061062d565b61100a9190613283565b81548110611041577f4e487b7100000000000000000000000000000000000000000000000000000000600052603260045260246000fd5b906000526020600020018054611056906131d7565b80601f0160208091040260200160405190810160405280929190818152602001828054611082906131d7565b80156110cf5780601f106110a4576101008083540402835291602001916110cf565b820191906000526020600020905b8154815290600101906020018083116110b257829003601f168201915b5050505050905060006008826009856040516020016110f19493929190612b57565b604051602081830303815290604052905060006111368461111184611b8f565b604051602001611122929190612ba0565b604051602081830303815290604052611b8f565b905060008160405160200161114b9190612be5565b604051602081830303815290604052905061119a6040518060400160405280601581526020017f0a2d2d2d2d2d2d2d2d2d2d2d2d2d2d2d2d2d2d2d2d000000000000000000000081525061131d565b6111a38161131d565b6111e16040518060400160405280601581526020017f2d2d2d2d2d2d2d2d2d2d2d2d2d2d2d2d2d2d2d2d0a000000000000000000000081525061131d565b6111eb338a611d4d565b6111f58982611d6b565b61121860405180606001604052806025815260200161399b602591398a33611ddf565b6112226007611e7e565b61124560405180606001604052806025815260200161399b602591398a33611ddf565b7febb98688741ffa4c7589bf325de30cf7becb63de567842e1ccdb6cb949fdc82c338a604051611276929190612c6e565b60405180910390a1505050505050505050565b6000600560008473ffffffffffffffffffffffffffffffffffffffff1673ffffffffffffffffffffffffffffffffffffffff16815260200190815260200160002060008373ffffffffffffffffffffffffffffffffffffffff1673ffffffffffffffffffffffffffffffffffffffff16815260200190815260200160002060009054906101000a900460ff16905092915050565b6113b3816040516024016113319190612cb2565b6040516020818303038152906040527f41304fac000000000000000000000000000000000000000000000000000000007bffffffffffffffffffffffffffffffffffffffffffffffffffffffff19166020820180517bffffffffffffffffffffffffffffffffffffffffffffffffffffffff8381831617835250505050611e94565b50565b60007f01ffc9a7000000000000000000000000000000000000000000000000000000007bffffffffffffffffffffffffffffffffffffffffffffffffffffffff1916827bffffffffffffffffffffffffffffffffffffffffffffffffffffffff1916149050919050565b60008073ffffffffffffffffffffffffffffffffffffffff166002600084815260200190815260200160002060009054906101000a900473ffffffffffffffffffffffffffffffffffffffff1673ffffffffffffffffffffffffffffffffffffffff1614159050919050565b600033905090565b816004600083815260200190815260200160002060006101000a81548173ffffffffffffffffffffffffffffffffffffffff021916908373ffffffffffffffffffffffffffffffffffffffff160217905550808273ffffffffffffffffffffffffffffffffffffffff16611507836106fb565b73ffffffffffffffffffffffffffffffffffffffff167f8c5be1e5ebec7d5bd14f71427d1e84f3dd0314c0f7b2291e5b200ac8c7c3b92560405160405180910390a45050565b600081600001549050919050565b606060008214156115a3576040518060400160405280600181526020017f30000000000000000000000000000000000000000000000000000000000000008152509050611703565b600082905060005b600082146115d55780806115be9061323a565b915050600a826115ce9190613062565b91506115ab565b60008167ffffffffffffffff811115611617577f4e487b7100000000000000000000000000000000000000000000000000000000600052604160045260246000fd5b6040519080825280601f01601f1916602001820160405280156116495781602001600182028036833780820191505090505b5090505b600085146116fc5760018261166291906130ed565b9150600a856116719190613283565b603061167d919061300c565b60f81b8183815181106116b9577f4e487b7100000000000000000000000000000000000000000000000000000000600052603260045260246000fd5b60200101907effffffffffffffffffffffffffffffffffffffffffffffffffffffffffffff1916908160001a905350600a856116f59190613062565b945061164d565b8093505050505b919050565b60008160405160200161171b9190612cb2565b6040516020818303038152906040528051906020012060001c9050919050565b600061174682611420565b611785576040517f08c379a000000000000000000000000000000000000000000000000000000000815260040161177c90612d92565b60405180910390fd5b6000611790836106fb565b90508073ffffffffffffffffffffffffffffffffffffffff168473ffffffffffffffffffffffffffffffffffffffff1614806117ff57508373ffffffffffffffffffffffffffffffffffffffff166117e784610490565b73ffffffffffffffffffffffffffffffffffffffff16145b80611810575061180f8185611289565b5b91505092915050565b8273ffffffffffffffffffffffffffffffffffffffff16611839826106fb565b73ffffffffffffffffffffffffffffffffffffffff161461188f576040517f08c379a000000000000000000000000000000000000000000000000000000000815260040161188690612e92565b60405180910390fd5b600073ffffffffffffffffffffffffffffffffffffffff168273ffffffffffffffffffffffffffffffffffffffff1614156118ff576040517f08c379a00000000000000000000000000000000000000000000000000000000081526004016118f690612d52565b60405180910390fd5b61190a838383611ebd565b611915600082611494565b6001600360008573ffffffffffffffffffffffffffffffffffffffff1673ffffffffffffffffffffffffffffffffffffffff168152602001908152602001600020600082825461196591906130ed565b925050819055506001600360008473ffffffffffffffffffffffffffffffffffffffff1673ffffffffffffffffffffffffffffffffffffffff16815260200190815260200160002060008282546119bc919061300c565b92505081905550816002600083815260200190815260200160002060006101000a81548173ffffffffffffffffffffffffffffffffffffffff021916908373ffffffffffffffffffffffffffffffffffffffff160217905550808273ffffffffffffffffffffffffffffffffffffffff168473ffffffffffffffffffffffffffffffffffffffff167fddf252ad1be2c89b69c2b068fc378daa952ba7f163c4a11628f55a4df523b3ef60405160405180910390a4505050565b611a80848484611819565b611a8c84848484611ec2565b611acb576040517f08c379a0000000000000000000000000000000000000000000000000000000008152600401611ac290612d12565b60405180910390fd5b50505050565b606060405180602001604052806000815250905090565b6060611af382611420565b611b32576040517f08c379a0000000000000000000000000000000000000000000000000000000008152600401611b2990612eb2565b60405180910390fd5b6000611b3c611ad1565b90506000815111611b5c5760405180602001604052806000815250611b87565b80611b668461155b565b604051602001611b77929190612b02565b6040516020818303038152906040525b915050919050565b60606000825190506000811415611bb85760405180602001604052806000815250915050611d48565b60006003600283611bc9919061300c565b611bd39190613062565b6004611bdf9190613093565b90506000602082611bf0919061300c565b67ffffffffffffffff811115611c2f577f4e487b7100000000000000000000000000000000000000000000000000000000600052604160045260246000fd5b6040519080825280601f01601f191660200182016040528015611c615781602001600182028036833780820191505090505b50905060006040518060600160405280604081526020016139c0604091399050600181016020830160005b86811015611d055760038101905062ffffff818a015116603f8160121c168401518060081b905060ff603f83600c1c1686015116810190508060081b905060ff603f8360061c1686015116810190508060081b905060ff603f831686015116810190508060e01b90508084526004840193505050611c8c565b506003860660018114611d1f5760028114611d2f57611d3a565b613d3d60f01b6002830352611d3a565b603d60f81b60018303525b508484525050819450505050505b919050565b611d67828260405180602001604052806000815250612059565b5050565b611d7482611420565b611db3576040517f08c379a0000000000000000000000000000000000000000000000000000000008152600401611daa90612e12565b60405180910390fd5b80600660008481526020019081526020016000209080519060200190611dda929190612295565b505050565b611e79838383604051602401611df793929190612cd4565b6040516020818303038152906040527fe3849f79000000000000000000000000000000000000000000000000000000007bffffffffffffffffffffffffffffffffffffffffffffffffffffffff19166020820180517bffffffffffffffffffffffffffffffffffffffffffffffffffffffff8381831617835250505050611e94565b505050565b6001816000016000828254019250508190555050565b60008151905060006a636f6e736f6c652e6c6f679050602083016000808483855afa5050505050565b505050565b6000611ee38473ffffffffffffffffffffffffffffffffffffffff166120b4565b1561204c578373ffffffffffffffffffffffffffffffffffffffff1663150b7a02611f0c61148c565b8786866040518563ffffffff1660e01b8152600401611f2e9493929190612c22565b602060405180830381600087803b158015611f4857600080fd5b505af1925050508015611f7957506040513d601f19601f82011682018060405250810190611f769190612641565b60015b611ffc573d8060008114611fa9576040519150601f19603f3d011682016040523d82523d6000602084013e611fae565b606091505b50600081511415611ff4576040517f08c379a0000000000000000000000000000000000000000000000000000000008152600401611feb90612d12565b60405180910390fd5b805181602001fd5b63150b7a0260e01b7bffffffffffffffffffffffffffffffffffffffffffffffffffffffff1916817bffffffffffffffffffffffffffffffffffffffffffffffffffffffff191614915050612051565b600190505b949350505050565b61206383836120c7565b6120706000848484611ec2565b6120af576040517f08c379a00000000000000000000000000000000000000000000000000000000081526004016120a690612d12565b60405180910390fd5b505050565b600080823b905060008111915050919050565b600073ffffffffffffffffffffffffffffffffffffffff168273ffffffffffffffffffffffffffffffffffffffff161415612137576040517f08c379a000000000000000000000000000000000000000000000000000000000815260040161212e90612e32565b60405180910390fd5b61214081611420565b15612180576040517f08c379a000000000000000000000000000000000000000000000000000000000815260040161217790612d32565b60405180910390fd5b61218c60008383611ebd565b6001600360008473ffffffffffffffffffffffffffffffffffffffff1673ffffffffffffffffffffffffffffffffffffffff16815260200190815260200160002060008282546121dc919061300c565b92505081905550816002600083815260200190815260200160002060006101000a81548173ffffffffffffffffffffffffffffffffffffffff021916908373ffffffffffffffffffffffffffffffffffffffff160217905550808273ffffffffffffffffffffffffffffffffffffffff16600073ffffffffffffffffffffffffffffffffffffffff167fddf252ad1be2c89b69c2b068fc378daa952ba7f163c4a11628f55a4df523b3ef60405160405180910390a45050565b8280546122a1906131d7565b90600052602060002090601f0160209004810192826122c3576000855561230a565b82601f106122dc57805160ff191683800117855561230a565b8280016001018555821561230a579182015b828111156123095782518255916020019190600101906122ee565b5b509050612317919061231b565b5090565b5b8082111561233457600081600090555060010161231c565b5090565b600061234b61234684612f52565b612f2d565b90508281526020810184848401111561236357600080fd5b61236e848285613195565b509392505050565b600061238961238484612f83565b612f2d565b9050828152602081018484840111156123a157600080fd5b6123ac848285613195565b509392505050565b6000813590506123c38161393e565b92915050565b6000813590506123d881613955565b92915050565b6000813590506123ed8161396c565b92915050565b6000815190506124028161396c565b92915050565b600082601f83011261241957600080fd5b8135612429848260208601612338565b91505092915050565b600082601f83011261244357600080fd5b8135612453848260208601612376565b91505092915050565b60008135905061246b81613983565b92915050565b60006020828403121561248357600080fd5b6000612491848285016123b4565b91505092915050565b600080604083850312156124ad57600080fd5b60006124bb858286016123b4565b92505060206124cc858286016123b4565b9150509250929050565b6000806000606084860312156124eb57600080fd5b60006124f9868287016123b4565b935050602061250a868287016123b4565b925050604061251b8682870161245c565b9150509250925092565b6000806000806080858703121561253b57600080fd5b6000612549878288016123b4565b945050602061255a878288016123b4565b935050604061256b8782880161245c565b925050606085013567ffffffffffffffff81111561258857600080fd5b61259487828801612408565b91505092959194509250565b600080604083850312156125b357600080fd5b60006125c1858286016123b4565b92505060206125d2858286016123c9565b9150509250929050565b600080604083850312156125ef57600080fd5b60006125fd858286016123b4565b925050602061260e8582860161245c565b9150509250929050565b60006020828403121561262a57600080fd5b6000612638848285016123de565b91505092915050565b60006020828403121561265357600080fd5b6000612661848285016123f3565b91505092915050565b60006020828403121561267c57600080fd5b600082013567ffffffffffffffff81111561269657600080fd5b6126a284828501612432565b91505092915050565b6000602082840312156126bd57600080fd5b60006126cb8482850161245c565b91505092915050565b6126dd81613121565b82525050565b6126ec81613133565b82525050565b60006126fd82612fc9565b6127078185612fdf565b93506127178185602086016131a4565b61272081613370565b840191505092915050565b600061273682612fd4565b6127408185612ff0565b93506127508185602086016131a4565b61275981613370565b840191505092915050565b600061276f82612fd4565b6127798185613001565b93506127898185602086016131a4565b80840191505092915050565b600081546127a2816131d7565b6127ac8186613001565b945060018216600081146127c757600181146127d85761280b565b60ff1983168652818601935061280b565b6127e185612fb4565b60005b83811015612803578154818901526001820191506020810190506127e4565b838801955050505b50505092915050565b6000612821603283612ff0565b915061282c82613381565b604082019050919050565b6000612844601c83612ff0565b915061284f826133d0565b602082019050919050565b6000612867602483612ff0565b9150612872826133f9565b604082019050919050565b600061288a601983612ff0565b915061289582613448565b602082019050919050565b60006128ad606383613001565b91506128b882613471565b606382019050919050565b60006128d0602c83612ff0565b91506128db8261350c565b604082019050919050565b60006128f3600d83613001565b91506128fe8261355b565b600d82019050919050565b6000612916603883612ff0565b915061292182613584565b604082019050919050565b6000612939602a83612ff0565b9150612944826135d3565b604082019050919050565b600061295c602983612ff0565b915061296782613622565b604082019050919050565b600061297f602e83612ff0565b915061298a82613671565b604082019050919050565b60006129a2600283613001565b91506129ad826136c0565b600282019050919050565b60006129c5602083612ff0565b91506129d0826136e9565b602082019050919050565b60006129e8603183612ff0565b91506129f382613712565b604082019050919050565b6000612a0b602c83612ff0565b9150612a1682613761565b604082019050919050565b6000612a2e602983612ff0565b9150612a39826137b0565b604082019050919050565b6000612a51602f83612ff0565b9150612a5c826137ff565b604082019050919050565b6000612a74600a83613001565b9150612a7f8261384e565b600a82019050919050565b6000612a97602183612ff0565b9150612aa282613877565b604082019050919050565b6000612aba601d83613001565b9150612ac5826138c6565b601d82019050919050565b6000612add603183612ff0565b9150612ae8826138ef565b604082019050919050565b612afc8161318b565b82525050565b6000612b0e8285612764565b9150612b1a8284612764565b91508190509392505050565b6000612b328286612764565b9150612b3e8285612764565b9150612b4a8284612764565b9150819050949350505050565b6000612b638287612795565b9150612b6f8286612764565b9150612b7b8285612795565b9150612b878284612764565b9150612b92826128e6565b915081905095945050505050565b6000612bab82612a67565b9150612bb78285612764565b9150612bc2826128a0565b9150612bce8284612764565b9150612bd982612995565b91508190509392505050565b6000612bf082612aad565b9150612bfc8284612764565b915081905092915050565b6000602082019050612c1c60008301846126d4565b92915050565b6000608082019050612c3760008301876126d4565b612c4460208301866126d4565b612c516040830185612af3565b8181036060830152612c6381846126f2565b905095945050505050565b6000604082019050612c8360008301856126d4565b612c906020830184612af3565b9392505050565b6000602082019050612cac60008301846126e3565b92915050565b60006020820190508181036000830152612ccc818461272b565b905092915050565b60006060820190508181036000830152612cee818661272b565b9050612cfd6020830185612af3565b612d0a60408301846126d4565b949350505050565b60006020820190508181036000830152612d2b81612814565b9050919050565b60006020820190508181036000830152612d4b81612837565b9050919050565b60006020820190508181036000830152612d6b8161285a565b9050919050565b60006020820190508181036000830152612d8b8161287d565b9050919050565b60006020820190508181036000830152612dab816128c3565b9050919050565b60006020820190508181036000830152612dcb81612909565b9050919050565b60006020820190508181036000830152612deb8161292c565b9050919050565b60006020820190508181036000830152612e0b8161294f565b9050919050565b60006020820190508181036000830152612e2b81612972565b9050919050565b60006020820190508181036000830152612e4b816129b8565b9050919050565b60006020820190508181036000830152612e6b816129db565b9050919050565b60006020820190508181036000830152612e8b816129fe565b9050919050565b60006020820190508181036000830152612eab81612a21565b9050919050565b60006020820190508181036000830152612ecb81612a44565b9050919050565b60006020820190508181036000830152612eeb81612a8a565b9050919050565b60006020820190508181036000830152612f0b81612ad0565b9050919050565b6000602082019050612f276000830184612af3565b92915050565b6000612f37612f48565b9050612f438282613209565b919050565b6000604051905090565b600067ffffffffffffffff821115612f6d57612f6c613341565b5b612f7682613370565b9050602081019050919050565b600067ffffffffffffffff821115612f9e57612f9d613341565b5b612fa782613370565b9050602081019050919050565b60008190508160005260206000209050919050565b600081519050919050565b600081519050919050565b600082825260208201905092915050565b600082825260208201905092915050565b600081905092915050565b60006130178261318b565b91506130228361318b565b9250827fffffffffffffffffffffffffffffffffffffffffffffffffffffffffffffffff03821115613057576130566132b4565b5b828201905092915050565b600061306d8261318b565b91506130788361318b565b925082613088576130876132e3565b5b828204905092915050565b600061309e8261318b565b91506130a98361318b565b9250817fffffffffffffffffffffffffffffffffffffffffffffffffffffffffffffffff04831182151516156130e2576130e16132b4565b5b828202905092915050565b60006130f88261318b565b91506131038361318b565b925082821015613116576131156132b4565b5b828203905092915050565b600061312c8261316b565b9050919050565b60008115159050919050565b60007fffffffff0000000000000000000000000000000000000000000000000000000082169050919050565b600073ffffffffffffffffffffffffffffffffffffffff82169050919050565b6000819050919050565b82818337600083830152505050565b60005b838110156131c25780820151818401526020810190506131a7565b838111156131d1576000848401525b50505050565b600060028204905060018216806131ef57607f821691505b6020821081141561320357613202613312565b5b50919050565b61321282613370565b810181811067ffffffffffffffff8211171561323157613230613341565b5b80604052505050565b60006132458261318b565b91507fffffffffffffffffffffffffffffffffffffffffffffffffffffffffffffffff821415613278576132776132b4565b5b600182019050919050565b600061328e8261318b565b91506132998361318b565b9250826132a9576132a86132e3565b5b828206905092915050565b7f4e487b7100000000000000000000000000000000000000000000000000000000600052601160045260246000fd5b7f4e487b7100000000000000000000000000000000000000000000000000000000600052601260045260246000fd5b7f4e487b7100000000000000000000000000000000000000000000000000000000600052602260045260246000fd5b7f4e487b7100000000000000000000000000000000000000000000000000000000600052604160045260246000fd5b6000601f19601f8301169050919050565b7f4552433732313a207472616e7366657220746f206e6f6e20455243373231526560008201527f63656976657220696d706c656d656e7465720000000000000000000000000000602082015250565b7f4552433732313a20746f6b656e20616c7265616479206d696e74656400000000600082015250565b7f4552433732313a207472616e7366657220746f20746865207a65726f2061646460008201527f7265737300000000000000000000000000000000000000000000000000000000602082015250565b7f4552433732313a20617070726f766520746f2063616c6c657200000000000000600082015250565b7f222c20226465736372697074696f6e223a20224120686967686c79206163636c60008201527f61696d656420636f6c6c656374696f6e206f6620737175617265732e222c202260208201527f696d616765223a2022646174613a696d6167652f7376672b786d6c3b6261736560408201527f36342c0000000000000000000000000000000000000000000000000000000000606082015250565b7f4552433732313a206f70657261746f7220717565727920666f72206e6f6e657860008201527f697374656e7420746f6b656e0000000000000000000000000000000000000000602082015250565b7f3c2f746578743e3c2f7376673e00000000000000000000000000000000000000600082015250565b7f4552433732313a20617070726f76652063616c6c6572206973206e6f74206f7760008201527f6e6572206e6f7220617070726f76656420666f7220616c6c0000000000000000602082015250565b7f4552433732313a2062616c616e636520717565727920666f7220746865207a6560008201527f726f206164647265737300000000000000000000000000000000000000000000602082015250565b7f4552433732313a206f776e657220717565727920666f72206e6f6e657869737460008201527f656e7420746f6b656e0000000000000000000000000000000000000000000000602082015250565b7f45524337323155524953746f726167653a2055524920736574206f66206e6f6e60008201527f6578697374656e7420746f6b656e000000000000000000000000000000000000602082015250565b7f227d000000000000000000000000000000000000000000000000000000000000600082015250565b7f4552433732313a206d696e7420746f20746865207a65726f2061646472657373600082015250565b7f45524337323155524953746f726167653a2055524920717565727920666f722060008201527f6e6f6e6578697374656e7420746f6b656e000000000000000000000000000000602082015250565b7f4552433732313a20617070726f76656420717565727920666f72206e6f6e657860008201527f697374656e7420746f6b656e0000000000000000000000000000000000000000602082015250565b7f4552433732313a207472616e73666572206f6620746f6b656e2074686174206960008201527f73206e6f74206f776e0000000000000000000000000000000000000000000000602082015250565b7f4552433732314d657461646174613a2055524920717565727920666f72206e6f60008201527f6e6578697374656e7420746f6b656e0000000000000000000000000000000000602082015250565b7f7b226e616d65223a202200000000000000000000000000000000000000000000600082015250565b7f4552433732313a20617070726f76616c20746f2063757272656e74206f776e6560008201527f7200000000000000000000000000000000000000000000000000000000000000602082015250565b7f646174613a6170706c69636174696f6e2f6a736f6e3b6261736536342c000000600082015250565b7f4552433732313a207472616e736665722063616c6c6572206973206e6f74206f60008201527f776e6572206e6f7220617070726f766564000000000000000000000000000000602082015250565b61394781613121565b811461395257600080fd5b50565b61395e81613133565b811461396957600080fd5b50565b6139758161313f565b811461398057600080fd5b50565b61398c8161318b565b811461399757600080fd5b5056fe416e204e465420772f20494420257320686173206265656e206d696e74656420746f2025734142434445464748494a4b4c4d4e4f505152535455565758595a6162636465666768696a6b6c6d6e6f707172737475767778797a303132333435363738392b2fa264697066735822122025dc2a037ab68f0ad20591a5df7cff048de3e9c570880707452927c0e19f64a564736f6c634300080400333c73766720786d6c6e733d27687474703a2f2f7777772e77332e6f72672f323030302f73766727207072657365727665417370656374526174696f3d27784d696e594d696e206d656574272076696577426f783d273020302033353020333530273e3c7374796c653e2e62617365207b2066696c6c3a2077686974653b20666f6e742d66616d696c793a2073657269663b20666f6e742d73697a653a20323470783b207d3c2f7374796c653e3c726563742077696474683d273130302527206865696768743d2731303025272066696c6c3d27272f3e3c7465787420783d273530252720793d273530252720636c6173733d27626173652720646f6d696e616e742d626173656c696e653d276d6964646c652720746578742d616e63686f723d276d6964646c65273e",
  "linkReferences": {},
  "deployedLinkReferences": {}
}